{
  "_format": "hh-sol-artifact-1",
  "contractName": "Greeter",
  "sourceName": "contracts/Greeter.sol",
  "abi": [
    {
      "inputs": [
        {
          "internalType": "string",
          "name": "_greeting",
          "type": "string"
        }
      ],
      "stateMutability": "nonpayable",
      "type": "constructor"
    },
    {
      "stateMutability": "payable",
      "type": "fallback"
    },
    {
      "inputs": [],
      "name": "decimals",
      "outputs": [],
      "stateMutability": "nonpayable",
      "type": "function"
    },
    {
      "inputs": [],
      "name": "greet",
      "outputs": [
        {
          "internalType": "string",
          "name": "",
          "type": "string"
        }
      ],
      "stateMutability": "view",
      "type": "function"
    },
    {
      "inputs": [],
      "name": "name",
      "outputs": [],
      "stateMutability": "nonpayable",
      "type": "function"
    },
    {
      "inputs": [
        {
          "internalType": "string",
          "name": "_greeting",
          "type": "string"
        }
      ],
      "name": "setGreeting",
      "outputs": [],
      "stateMutability": "nonpayable",
      "type": "function"
    },
    {
      "inputs": [
        {
          "internalType": "bytes4",
          "name": "interfaceId",
          "type": "bytes4"
        }
      ],
      "name": "supportsInterface",
      "outputs": [],
      "stateMutability": "nonpayable",
      "type": "function"
    },
    {
      "inputs": [],
      "name": "symbol",
      "outputs": [],
      "stateMutability": "nonpayable",
      "type": "function"
    },
    {
      "stateMutability": "payable",
      "type": "receive"
    }
  ],
  "bytecode": "0x608060405234801561001057600080fd5b506040516110f23803806110f2833981810160405281019061003291906102e8565b61005a6040518060600160405280602281526020016110d0602291398261007060201b60201c565b80600090816100699190610552565b50506106d4565b61010e828260405160240161008692919061066e565b6040516020818303038152906040527f4b5c4277000000000000000000000000000000000000000000000000000000007bffffffffffffffffffffffffffffffffffffffffffffffffffffffff19166020820180517bffffffffffffffffffffffffffffffffffffffffffffffffffffffff838183161783525050505061011260201b60201c565b5050565b6101338161012e61013660201b6102791761015760201b60201c565b60201c565b50565b60006a636f6e736f6c652e6c6f679050600080835160208501845afa505050565b61016960201b61035e17819050919050565b6101716106a5565b565b6000604051905090565b600080fd5b600080fd5b600080fd5b600080fd5b6000601f19601f8301169050919050565b7f4e487b7100000000000000000000000000000000000000000000000000000000600052604160045260246000fd5b6101da82610191565b810181811067ffffffffffffffff821117156101f9576101f86101a2565b5b80604052505050565b600061020c610173565b905061021882826101d1565b919050565b600067ffffffffffffffff821115610238576102376101a2565b5b61024182610191565b9050602081019050919050565b60005b8381101561026c578082015181840152602081019050610251565b60008484015250505050565b600061028b6102868461021d565b610202565b9050828152602081018484840111156102a7576102a661018c565b5b6102b284828561024e565b509392505050565b600082601f8301126102cf576102ce610187565b5b81516102df848260208601610278565b91505092915050565b6000602082840312156102fe576102fd61017d565b5b600082015167ffffffffffffffff81111561031c5761031b610182565b5b610328848285016102ba565b91505092915050565b600081519050919050565b7f4e487b7100000000000000000000000000000000000000000000000000000000600052602260045260246000fd5b6000600282049050600182168061038357607f821691505b6020821081036103965761039561033c565b5b50919050565b60008190508160005260206000209050919050565b60006020601f8301049050919050565b600082821b905092915050565b6000600883026103fe7fffffffffffffffffffffffffffffffffffffffffffffffffffffffffffffffff826103c1565b61040886836103c1565b95508019841693508086168417925050509392505050565b6000819050919050565b6000819050919050565b600061044f61044a61044584610420565b61042a565b610420565b9050919050565b6000819050919050565b61046983610434565b61047d61047582610456565b8484546103ce565b825550505050565b600090565b610492610485565b61049d818484610460565b505050565b5b818110156104c1576104b660008261048a565b6001810190506104a3565b5050565b601f821115610506576104d78161039c565b6104e0846103b1565b810160208510156104ef578190505b6105036104fb856103b1565b8301826104a2565b50505b505050565b600082821c905092915050565b60006105296000198460080261050b565b1980831691505092915050565b60006105428383610518565b9150826002028217905092915050565b61055b82610331565b67ffffffffffffffff811115610574576105736101a2565b5b61057e825461036b565b6105898282856104c5565b600060209050601f8311600181146105bc57600084156105aa578287015190505b6105b48582610536565b86555061061c565b601f1984166105ca8661039c565b60005b828110156105f2578489015182556001820191506020850194506020810190506105cd565b8683101561060f578489015161060b601f891682610518565b8355505b6001600288020188555050505b505050505050565b600082825260208201905092915050565b600061064082610331565b61064a8185610624565b935061065a81856020860161024e565b61066381610191565b840191505092915050565b600060408201905081810360008301526106888185610635565b9050818103602083015261069c8184610635565b90509392505050565b7f4e487b7100000000000000000000000000000000000000000000000000000000600052605160045260246000fd5b6109ed806106e36000396000f3fe6080604052600436106100595760003560e01c806301ffc9a71461005c57806306fdde0314610085578063313ce5671461009c57806395d89b41146100b3578063a4136862146100ca578063cfae3217146100f35761005a565b5b005b34801561006857600080fd5b50610083600480360381019061007e91906103d4565b61011e565b005b34801561009157600080fd5b5061009a610121565b005b3480156100a857600080fd5b506100b1610123565b005b3480156100bf57600080fd5b506100c8610125565b005b3480156100d657600080fd5b506100f160048036038101906100ec9190610547565b610127565b005b3480156100ff57600080fd5b506101086101e7565b604051610115919061060f565b60405180910390f35b50565b565b565b565b6101d4604051806060016040528060238152602001610995602391396000805461015090610660565b80601f016020809104026020016040519081016040528092919081815260200182805461017c90610660565b80156101c95780601f1061019e576101008083540402835291602001916101c9565b820191906000526020600020905b8154815290600101906020018083116101ac57829003601f168201915b50505050508361029a565b80600090816101e39190610847565b5050565b6060600080546101f690610660565b80601f016020809104026020016040519081016040528092919081815260200182805461022290610660565b801561026f5780601f106102445761010080835404028352916020019161026f565b820191906000526020600020905b81548152906001019060200180831161025257829003601f168201915b5050505050905090565b60006a636f6e736f6c652e6c6f679050600080835160208501845afa505050565b6103348383836040516024016102b293929190610919565b6040516020818303038152906040527f2ced7cef000000000000000000000000000000000000000000000000000000007bffffffffffffffffffffffffffffffffffffffffffffffffffffffff19166020820180517bffffffffffffffffffffffffffffffffffffffffffffffffffffffff8381831617835250505050610339565b505050565b61035081610348610279610353565b63ffffffff16565b50565b61035e819050919050565b610366610965565b565b6000604051905090565b600080fd5b600080fd5b60007fffffffff0000000000000000000000000000000000000000000000000000000082169050919050565b6103b18161037c565b81146103bc57600080fd5b50565b6000813590506103ce816103a8565b92915050565b6000602082840312156103ea576103e9610372565b5b60006103f8848285016103bf565b91505092915050565b600080fd5b600080fd5b6000601f19601f8301169050919050565b7f4e487b7100000000000000000000000000000000000000000000000000000000600052604160045260246000fd5b6104548261040b565b810181811067ffffffffffffffff821117156104735761047261041c565b5b80604052505050565b6000610486610368565b9050610492828261044b565b919050565b600067ffffffffffffffff8211156104b2576104b161041c565b5b6104bb8261040b565b9050602081019050919050565b82818337600083830152505050565b60006104ea6104e584610497565b61047c565b90508281526020810184848401111561050657610505610406565b5b6105118482856104c8565b509392505050565b600082601f83011261052e5761052d610401565b5b813561053e8482602086016104d7565b91505092915050565b60006020828403121561055d5761055c610372565b5b600082013567ffffffffffffffff81111561057b5761057a610377565b5b61058784828501610519565b91505092915050565b600081519050919050565b600082825260208201905092915050565b60005b838110156105ca5780820151818401526020810190506105af565b60008484015250505050565b60006105e182610590565b6105eb818561059b565b93506105fb8185602086016105ac565b6106048161040b565b840191505092915050565b6000602082019050818103600083015261062981846105d6565b905092915050565b7f4e487b7100000000000000000000000000000000000000000000000000000000600052602260045260246000fd5b6000600282049050600182168061067857607f821691505b60208210810361068b5761068a610631565b5b50919050565b60008190508160005260206000209050919050565b60006020601f8301049050919050565b600082821b905092915050565b6000600883026106f37fffffffffffffffffffffffffffffffffffffffffffffffffffffffffffffffff826106b6565b6106fd86836106b6565b95508019841693508086168417925050509392505050565b6000819050919050565b6000819050919050565b600061074461073f61073a84610715565b61071f565b610715565b9050919050565b6000819050919050565b61075e83610729565b61077261076a8261074b565b8484546106c3565b825550505050565b600090565b61078761077a565b610792818484610755565b505050565b5b818110156107b6576107ab60008261077f565b600181019050610798565b5050565b601f8211156107fb576107cc81610691565b6107d5846106a6565b810160208510156107e4578190505b6107f86107f0856106a6565b830182610797565b50505b505050565b600082821c905092915050565b600061081e60001984600802610800565b1980831691505092915050565b6000610837838361080d565b9150826002028217905092915050565b61085082610590565b67ffffffffffffffff8111156108695761086861041c565b5b6108738254610660565b61087e8282856107ba565b600060209050601f8311600181146108b1576000841561089f578287015190505b6108a9858261082b565b865550610911565b601f1984166108bf86610691565b60005b828110156108e7578489015182556001820191506020850194506020810190506108c2565b868310156109045784890151610900601f89168261080d565b8355505b6001600288020188555050505b505050505050565b6000606082019050818103600083015261093381866105d6565b9050818103602083015261094781856105d6565b9050818103604083015261095b81846105d6565b9050949350505050565b7f4e487b7100000000000000000000000000000000000000000000000000000000600052605160045260246000fdfe4368616e67696e67206772656574696e672066726f6d202725732720746f2027257327a264697066735822122042df65c87d45178bbc534ed139374a4a7ce27b88e1eb1901c8ef85e62552034d64736f6c634300081c00334465706c6f79696e67206120477265657465722077697468206772656574696e673a",
  "linkReferences": {},
  "deployedLinkReferences": {}
}