{
  "_format": "hh-sol-artifact-1",
  "contractName": "VehicleContract",
  "sourceName": "contracts/VehicleContract.sol",
  "abi": [
    {
      "inputs": [],
      "stateMutability": "nonpayable",
      "type": "constructor"
    },
    {
      "anonymous": false,
      "inputs": [
        {
          "indexed": false,
          "internalType": "string",
          "name": "vin",
          "type": "string"
        },
        {
          "indexed": true,
          "internalType": "address",
          "name": "garagist",
          "type": "address"
        }
      ],
      "name": "MaintenanceCompleted",
      "type": "event"
    },
    {
      "anonymous": false,
      "inputs": [
        {
          "indexed": false,
          "internalType": "string",
          "name": "vin",
          "type": "string"
        },
        {
          "indexed": true,
          "internalType": "address",
          "name": "garagist",
          "type": "address"
        },
        {
          "indexed": false,
          "internalType": "uint256",
          "name": "price",
          "type": "uint256"
        }
      ],
      "name": "MaintenanceRequested",
      "type": "event"
    },
    {
      "anonymous": false,
      "inputs": [
        {
          "indexed": false,
          "internalType": "string",
          "name": "vin",
          "type": "string"
        },
        {
          "indexed": true,
          "internalType": "address",
          "name": "seller",
          "type": "address"
        }
      ],
      "name": "SaleCancelled",
      "type": "event"
    },
    {
      "anonymous": false,
      "inputs": [
        {
          "indexed": false,
          "internalType": "string",
          "name": "vin",
          "type": "string"
        },
        {
          "indexed": true,
          "internalType": "address",
          "name": "seller",
          "type": "address"
        },
        {
          "indexed": true,
          "internalType": "address",
          "name": "buyer",
          "type": "address"
        },
        {
          "indexed": false,
          "internalType": "uint256",
          "name": "price",
          "type": "uint256"
        }
      ],
      "name": "SaleCompleted",
      "type": "event"
    },
    {
      "anonymous": false,
      "inputs": [
        {
          "indexed": false,
          "internalType": "string",
          "name": "vin",
          "type": "string"
        },
        {
          "indexed": true,
          "internalType": "address",
          "name": "seller",
          "type": "address"
        },
        {
          "indexed": true,
          "internalType": "address",
          "name": "buyer",
          "type": "address"
        },
        {
          "indexed": false,
          "internalType": "uint256",
          "name": "price",
          "type": "uint256"
        }
      ],
      "name": "SaleProposed",
      "type": "event"
    },
    {
      "anonymous": false,
      "inputs": [
        {
          "indexed": false,
          "internalType": "string",
          "name": "vin",
          "type": "string"
        },
        {
          "indexed": true,
          "internalType": "address",
          "name": "owner",
          "type": "address"
        }
      ],
      "name": "VehicleRegistered",
      "type": "event"
    },
    {
      "inputs": [
        {
          "internalType": "string",
          "name": "vin",
          "type": "string"
        }
      ],
      "name": "acceptSale",
      "outputs": [],
      "stateMutability": "payable",
      "type": "function"
    },
    {
      "inputs": [
        {
          "internalType": "string",
          "name": "vin",
          "type": "string"
        }
      ],
      "name": "archiveVehicle",
      "outputs": [],
      "stateMutability": "nonpayable",
      "type": "function"
    },
    {
      "inputs": [
        {
          "internalType": "string",
          "name": "vin",
          "type": "string"
        },
        {
          "internalType": "address",
          "name": "garagist",
          "type": "address"
        },
        {
          "internalType": "uint256",
          "name": "price",
          "type": "uint256"
        }
      ],
      "name": "askForMaintenance",
      "outputs": [],
      "stateMutability": "payable",
      "type": "function"
    },
    {
      "inputs": [
        {
          "internalType": "string",
          "name": "vin",
          "type": "string"
        }
      ],
      "name": "cancelMaintenance",
      "outputs": [],
      "stateMutability": "nonpayable",
      "type": "function"
    },
    {
      "inputs": [
        {
          "internalType": "string",
          "name": "vin",
          "type": "string"
        }
      ],
      "name": "cancelSale",
      "outputs": [],
      "stateMutability": "nonpayable",
      "type": "function"
    },
    {
      "inputs": [
        {
          "internalType": "string",
          "name": "vin",
          "type": "string"
        },
        {
          "internalType": "string",
          "name": "description",
          "type": "string"
        }
      ],
      "name": "completeMaintenance",
      "outputs": [],
      "stateMutability": "nonpayable",
      "type": "function"
    },
    {
      "inputs": [
        {
          "internalType": "string",
          "name": "vin",
          "type": "string"
        },
        {
          "internalType": "address",
          "name": "initialOwner",
          "type": "address"
        },
        {
          "internalType": "uint256",
          "name": "reward",
          "type": "uint256"
        }
      ],
      "name": "createVehicle",
      "outputs": [],
      "stateMutability": "payable",
      "type": "function"
    },
    {
      "inputs": [
        {
          "internalType": "string",
          "name": "vin",
          "type": "string"
        }
      ],
      "name": "getHistories",
      "outputs": [
        {
          "components": [
            {
              "internalType": "address",
              "name": "garagist",
              "type": "address"
            },
            {
              "internalType": "string",
              "name": "description",
              "type": "string"
            }
          ],
          "internalType": "struct VehicleContract.History[]",
          "name": "",
          "type": "tuple[]"
        }
      ],
      "stateMutability": "view",
      "type": "function"
    },
    {
      "inputs": [
        {
          "internalType": "string",
          "name": "vin",
          "type": "string"
        }
      ],
      "name": "getVehicle",
      "outputs": [
        {
          "internalType": "string",
          "name": "",
          "type": "string"
        },
        {
          "internalType": "address",
          "name": "",
          "type": "address"
        },
        {
          "internalType": "bool",
          "name": "",
          "type": "bool"
        }
      ],
      "stateMutability": "view",
      "type": "function"
    },
    {
      "inputs": [
        {
          "internalType": "string",
          "name": "",
          "type": "string"
        }
      ],
      "name": "maintenances",
      "outputs": [
        {
          "internalType": "string",
          "name": "vin",
          "type": "string"
        },
        {
          "internalType": "address",
          "name": "garagist",
          "type": "address"
        },
        {
          "internalType": "address",
          "name": "owner",
          "type": "address"
        },
        {
          "internalType": "uint256",
          "name": "price",
          "type": "uint256"
        },
        {
          "internalType": "bool",
          "name": "isFinished",
          "type": "bool"
        }
      ],
      "stateMutability": "view",
      "type": "function"
    },
    {
      "inputs": [
        {
          "internalType": "string",
          "name": "vin",
          "type": "string"
        },
        {
          "internalType": "address",
          "name": "buyer",
          "type": "address"
        },
        {
          "internalType": "uint256",
          "name": "price",
          "type": "uint256"
        }
      ],
      "name": "proposeSale",
      "outputs": [],
      "stateMutability": "nonpayable",
      "type": "function"
    },
    {
      "inputs": [
        {
          "internalType": "string",
          "name": "",
          "type": "string"
        }
      ],
      "name": "sales",
      "outputs": [
        {
          "internalType": "address",
          "name": "seller",
          "type": "address"
        },
        {
          "internalType": "address",
          "name": "buyer",
          "type": "address"
        },
        {
          "internalType": "uint256",
          "name": "price",
          "type": "uint256"
        },
        {
          "internalType": "bool",
          "name": "isActive",
          "type": "bool"
        }
      ],
      "stateMutability": "view",
      "type": "function"
    },
    {
      "inputs": [
        {
          "internalType": "string",
          "name": "",
          "type": "string"
        }
      ],
      "name": "vehicles",
      "outputs": [
        {
          "internalType": "string",
          "name": "vin",
          "type": "string"
        },
        {
          "internalType": "address",
          "name": "owner",
          "type": "address"
        },
        {
          "internalType": "bool",
          "name": "isArchived",
          "type": "bool"
        },
        {
          "internalType": "uint256",
          "name": "historyCount",
          "type": "uint256"
        },
        {
          "internalType": "uint256",
          "name": "reward",
          "type": "uint256"
        }
      ],
      "stateMutability": "view",
      "type": "function"
    }
  ],
  "bytecode": "0x6080604052348015600f57600080fd5b50612fe08061001f6000396000f3fe6080604052600436106100c25760003560e01c806386735e371161007f578063d880887211610059578063d880887214610260578063dae5ff23146102a1578063ebc35ac7146102ca578063fbb37cf2146102e6576100c2565b806386735e37146101da578063949e206314610203578063976de5c51461021f576100c2565b8063047fd579146100c75780632977f78a146101065780634493fe6b1461012f57806357b5ea041461014b57806357d079c9146101885780636b474d7b146101b1575b600080fd5b3480156100d357600080fd5b506100ee60048036038101906100e99190612162565b610326565b6040516100fd93929190612286565b60405180910390f35b34801561011257600080fd5b5061012d60048036038101906101289190612162565b610421565b005b61014960048036038101906101449190612162565b6106b2565b005b34801561015757600080fd5b50610172600480360381019061016d9190612162565b610b9b565b60405161017f919061241c565b60405180910390f35b34801561019457600080fd5b506101af60048036038101906101aa9190612162565b610d92565b005b3480156101bd57600080fd5b506101d860048036038101906101d3919061243e565b610ef1565b005b3480156101e657600080fd5b5061020160048036038101906101fc9190612162565b61125f565b005b61021d60048036038101906102189190612518565b611455565b005b34801561022b57600080fd5b5061024660048036038101906102419190612162565b611686565b604051610257959493929190612596565b60405180910390f35b34801561026c57600080fd5b5061028760048036038101906102829190612162565b611787565b6040516102989594939291906125f0565b60405180910390f35b3480156102ad57600080fd5b506102c860048036038101906102c39190612518565b6118a8565b005b6102e460048036038101906102df9190612518565b611ba4565b005b3480156102f257600080fd5b5061030d60048036038101906103089190612162565b611ee8565b60405161031d949392919061264a565b60405180910390f35b60606000806000808560405161033c91906126cb565b90815260200160405180910390209050806000018160010160009054906101000a900473ffffffffffffffffffffffffffffffffffffffff168260010160149054906101000a900460ff1682805461039390612711565b80601f01602080910402602001604051908101604052809291908181526020018280546103bf90612711565b801561040c5780601f106103e15761010080835404028352916020019161040c565b820191906000526020600020905b8154815290600101906020018083116103ef57829003601f168201915b50505050509250935093509350509193909250565b600060018260405161043391906126cb565b90815260200160405180910390206040518060800160405290816000820160009054906101000a900473ffffffffffffffffffffffffffffffffffffffff1673ffffffffffffffffffffffffffffffffffffffff1673ffffffffffffffffffffffffffffffffffffffff1681526020016001820160009054906101000a900473ffffffffffffffffffffffffffffffffffffffff1673ffffffffffffffffffffffffffffffffffffffff1673ffffffffffffffffffffffffffffffffffffffff168152602001600282015481526020016003820160009054906101000a900460ff16151515158152505090503373ffffffffffffffffffffffffffffffffffffffff16816000015173ffffffffffffffffffffffffffffffffffffffff1614610591576040517f08c379a00000000000000000000000000000000000000000000000000000000081526004016105889061278e565b60405180910390fd5b80606001516105d5576040517f08c379a00000000000000000000000000000000000000000000000000000000081526004016105cc906127fa565b60405180910390fd5b6001826040516105e591906126cb565b9081526020016040518091039020600080820160006101000a81549073ffffffffffffffffffffffffffffffffffffffff02191690556001820160006101000a81549073ffffffffffffffffffffffffffffffffffffffff021916905560028201600090556003820160006101000a81549060ff021916905550503373ffffffffffffffffffffffffffffffffffffffff167ff8e993c10df9f743dd57b54d4588f12752604048a3ad4ef72343d606f0db97d5836040516106a6919061281a565b60405180910390a25050565b60006001826040516106c491906126cb565b90815260200160405180910390206040518060800160405290816000820160009054906101000a900473ffffffffffffffffffffffffffffffffffffffff1673ffffffffffffffffffffffffffffffffffffffff1673ffffffffffffffffffffffffffffffffffffffff1681526020016001820160009054906101000a900473ffffffffffffffffffffffffffffffffffffffff1673ffffffffffffffffffffffffffffffffffffffff1673ffffffffffffffffffffffffffffffffffffffff168152602001600282015481526020016003820160009054906101000a900460ff161515151581525050905080606001516107f4576040517f08c379a00000000000000000000000000000000000000000000000000000000081526004016107eb906127fa565b60405180910390fd5b3373ffffffffffffffffffffffffffffffffffffffff16816020015173ffffffffffffffffffffffffffffffffffffffff1614610866576040517f08c379a000000000000000000000000000000000000000000000000000000000815260040161085d90612888565b60405180910390fd5b806040015134146108ac576040517f08c379a00000000000000000000000000000000000000000000000000000000081526004016108a3906128f4565b60405180910390fd5b806000015173ffffffffffffffffffffffffffffffffffffffff166108fc349081150290604051600060405180830381858888f193505050501580156108f6573d6000803e3d6000fd5b503360008360405161090891906126cb565b908152602001604051809103902060010160006101000a81548173ffffffffffffffffffffffffffffffffffffffff021916908373ffffffffffffffffffffffffffffffffffffffff1602179055506000808360405161096891906126cb565b9081526020016040518091039020905060008160030154905060405180604001604052803373ffffffffffffffffffffffffffffffffffffffff1681526020016040518060400160405280600e81526020017f56656869636c6520626f7567687400000000000000000000000000000000000081525081525082600201600083815260200190815260200160002060008201518160000160006101000a81548173ffffffffffffffffffffffffffffffffffffffff021916908373ffffffffffffffffffffffffffffffffffffffff1602179055506020820151816001019081610a529190612ac0565b5090505081600401819080600181540180825580915050600190039060005260206000200160009091909190915055816003016000815480929190610a9690612bc1565b9190505550600184604051610aab91906126cb565b9081526020016040518091039020600080820160006101000a81549073ffffffffffffffffffffffffffffffffffffffff02191690556001820160006101000a81549073ffffffffffffffffffffffffffffffffffffffff021916905560028201600090556003820160006101000a81549060ff021916905550503373ffffffffffffffffffffffffffffffffffffffff16836000015173ffffffffffffffffffffffffffffffffffffffff167fd49b82069fe37b0b93e153f59da3cc1dbca28c6490034e0231c5a4680d8d9016868660400151604051610b8d929190612c09565b60405180910390a350505050565b606060008083604051610bae91906126cb565b9081526020016040518091039020905060008160040180549050905060008167ffffffffffffffff811115610be657610be5612037565b5b604051908082528060200260200182016040528015610c1f57816020015b610c0c611f7b565b815260200190600190039081610c045790505b50905060005b82811015610d86576000846004018281548110610c4557610c44612c39565b5b906000526020600020015490508460020160008281526020019081526020016000206040518060400160405290816000820160009054906101000a900473ffffffffffffffffffffffffffffffffffffffff1673ffffffffffffffffffffffffffffffffffffffff1673ffffffffffffffffffffffffffffffffffffffff168152602001600182018054610cd890612711565b80601f0160208091040260200160405190810160405280929190818152602001828054610d0490612711565b8015610d515780601f10610d2657610100808354040283529160200191610d51565b820191906000526020600020905b815481529060010190602001808311610d3457829003601f168201915b505050505081525050838381518110610d6d57610d6c612c39565b5b6020026020010181905250508080600101915050610c25565b50809350505050919050565b803373ffffffffffffffffffffffffffffffffffffffff16600082604051610dba91906126cb565b908152602001604051809103902060010160009054906101000a900473ffffffffffffffffffffffffffffffffffffffff1673ffffffffffffffffffffffffffffffffffffffff1614610e42576040517f08c379a0000000000000000000000000000000000000000000000000000000008152600401610e399061278e565b60405180910390fd5b81600081604051610e5391906126cb565b908152602001604051809103902060010160149054906101000a900460ff1615610eb2576040517f08c379a0000000000000000000000000000000000000000000000000000000008152600401610ea990612cb4565b60405180910390fd5b6001600084604051610ec491906126cb565b908152602001604051809103902060010160146101000a81548160ff021916908315150217905550505050565b6000600283604051610f0391906126cb565b908152602001604051809103902090503373ffffffffffffffffffffffffffffffffffffffff168160010160009054906101000a900473ffffffffffffffffffffffffffffffffffffffff1673ffffffffffffffffffffffffffffffffffffffff1614610fa5576040517f08c379a0000000000000000000000000000000000000000000000000000000008152600401610f9c90612d20565b60405180910390fd5b8060040160009054906101000a900460ff1615610ff7576040517f08c379a0000000000000000000000000000000000000000000000000000000008152600401610fee90612d8c565b60405180910390fd5b60018160040160006101000a81548160ff0219169083151502179055506000808460405161102591906126cb565b9081526020016040518091039020905060008160030154905060405180604001604052803373ffffffffffffffffffffffffffffffffffffffff1681526020018581525082600201600083815260200190815260200160002060008201518160000160006101000a81548173ffffffffffffffffffffffffffffffffffffffff021916908373ffffffffffffffffffffffffffffffffffffffff16021790555060208201518160010190816110da9190612ac0565b509050508160040181908060018154018082558091505060019003906000526020600020016000909190919091505581600301600081548092919061111e90612bc1565b91905055503373ffffffffffffffffffffffffffffffffffffffff166108fc84600301549081150290604051600060405180830381858888f1935050505015801561116d573d6000803e3d6000fd5b506000600283600501546111819190612ddb565b9050808360050160008282546111979190612e0c565b925050819055503373ffffffffffffffffffffffffffffffffffffffff166108fc829081150290604051600060405180830381858888f193505050501580156111e4573d6000803e3d6000fd5b508360010160009054906101000a900473ffffffffffffffffffffffffffffffffffffffff1673ffffffffffffffffffffffffffffffffffffffff167fdcf0c3d201a48f6637ce1651d81d42fbb59ed8b2bd34c126468553b3d2c448408760405161124f919061281a565b60405180910390a2505050505050565b600060028260405161127191906126cb565b908152602001604051809103902090503373ffffffffffffffffffffffffffffffffffffffff168160020160009054906101000a900473ffffffffffffffffffffffffffffffffffffffff1673ffffffffffffffffffffffffffffffffffffffff1614611313576040517f08c379a000000000000000000000000000000000000000000000000000000000815260040161130a9061278e565b60405180910390fd5b8060040160009054906101000a900460ff1615611365576040517f08c379a000000000000000000000000000000000000000000000000000000000815260040161135c90612e8c565b60405180910390fd5b60008160030154905060028360405161137e91906126cb565b90815260200160405180910390206000808201600061139d9190611fab565b6001820160006101000a81549073ffffffffffffffffffffffffffffffffffffffff02191690556002820160006101000a81549073ffffffffffffffffffffffffffffffffffffffff021916905560038201600090556004820160006101000a81549060ff021916905550503373ffffffffffffffffffffffffffffffffffffffff166108fc829081150290604051600060405180830381858888f1935050505015801561144f573d6000803e3d6000fd5b50505050565b8060008111611499576040517f08c379a000000000000000000000000000000000000000000000000000000000815260040161149090612f1e565b60405180910390fd5b600073ffffffffffffffffffffffffffffffffffffffff166000856040516114c191906126cb565b908152602001604051809103902060010160009054906101000a900473ffffffffffffffffffffffffffffffffffffffff1673ffffffffffffffffffffffffffffffffffffffff1614611549576040517f08c379a000000000000000000000000000000000000000000000000000000000815260040161154090612f8a565b60405180910390fd5b81341461158b576040517f08c379a0000000000000000000000000000000000000000000000000000000008152600401611582906128f4565b60405180910390fd5b6000808560405161159c91906126cb565b90815260200160405180910390209050848160000190816115bd9190612ac0565b50838160010160006101000a81548173ffffffffffffffffffffffffffffffffffffffff021916908373ffffffffffffffffffffffffffffffffffffffff16021790555060008160010160146101000a81548160ff021916908315150217905550600081600301819055508281600501819055508373ffffffffffffffffffffffffffffffffffffffff167f0cfba914b5106da2fbba725502188ab817f680c8fe51c318c8bf6896a59f7fbd86604051611677919061281a565b60405180910390a25050505050565b6000818051602081018201805184825260208301602085012081835280955050505050506000915090508060000180546116bf90612711565b80601f01602080910402602001604051908101604052809291908181526020018280546116eb90612711565b80156117385780601f1061170d57610100808354040283529160200191611738565b820191906000526020600020905b81548152906001019060200180831161171b57829003601f168201915b5050505050908060010160009054906101000a900473ffffffffffffffffffffffffffffffffffffffff16908060010160149054906101000a900460ff16908060030154908060050154905085565b6002818051602081018201805184825260208301602085012081835280955050505050506000915090508060000180546117c090612711565b80601f01602080910402602001604051908101604052809291908181526020018280546117ec90612711565b80156118395780601f1061180e57610100808354040283529160200191611839565b820191906000526020600020905b81548152906001019060200180831161181c57829003601f168201915b5050505050908060010160009054906101000a900473ffffffffffffffffffffffffffffffffffffffff16908060020160009054906101000a900473ffffffffffffffffffffffffffffffffffffffff16908060030154908060040160009054906101000a900460ff16905085565b826000816040516118b991906126cb565b908152602001604051809103902060010160149054906101000a900460ff1615611918576040517f08c379a000000000000000000000000000000000000000000000000000000000815260040161190f90612cb4565b60405180910390fd5b833373ffffffffffffffffffffffffffffffffffffffff1660008260405161194091906126cb565b908152602001604051809103902060010160009054906101000a900473ffffffffffffffffffffffffffffffffffffffff1673ffffffffffffffffffffffffffffffffffffffff16146119c8576040517f08c379a00000000000000000000000000000000000000000000000000000000081526004016119bf9061278e565b60405180910390fd5b8260008111611a0c576040517f08c379a0000000000000000000000000000000000000000000000000000000008152600401611a0390612f1e565b60405180910390fd5b60405180608001604052803373ffffffffffffffffffffffffffffffffffffffff1681526020018673ffffffffffffffffffffffffffffffffffffffff16815260200185815260200160011515815250600187604051611a6c91906126cb565b908152602001604051809103902060008201518160000160006101000a81548173ffffffffffffffffffffffffffffffffffffffff021916908373ffffffffffffffffffffffffffffffffffffffff16021790555060208201518160010160006101000a81548173ffffffffffffffffffffffffffffffffffffffff021916908373ffffffffffffffffffffffffffffffffffffffff1602179055506040820151816002015560608201518160030160006101000a81548160ff0219169083151502179055509050508473ffffffffffffffffffffffffffffffffffffffff163373ffffffffffffffffffffffffffffffffffffffff167fdece8561a05f35a066090ca0735252d1572a2ac5c08066d442dc6c143ab6e7e28887604051611b94929190612c09565b60405180910390a3505050505050565b82600081604051611bb591906126cb565b908152602001604051809103902060010160149054906101000a900460ff1615611c14576040517f08c379a0000000000000000000000000000000000000000000000000000000008152600401611c0b90612cb4565b60405180910390fd5b833373ffffffffffffffffffffffffffffffffffffffff16600082604051611c3c91906126cb565b908152602001604051809103902060010160009054906101000a900473ffffffffffffffffffffffffffffffffffffffff1673ffffffffffffffffffffffffffffffffffffffff1614611cc4576040517f08c379a0000000000000000000000000000000000000000000000000000000008152600401611cbb9061278e565b60405180910390fd5b8260008111611d08576040517f08c379a0000000000000000000000000000000000000000000000000000000008152600401611cff90612f1e565b60405180910390fd5b83341015611d4b576040517f08c379a0000000000000000000000000000000000000000000000000000000008152600401611d42906128f4565b60405180910390fd5b6040518060a001604052808781526020018673ffffffffffffffffffffffffffffffffffffffff1681526020013373ffffffffffffffffffffffffffffffffffffffff16815260200185815260200160001515815250600287604051611db191906126cb565b90815260200160405180910390206000820151816000019081611dd49190612ac0565b5060208201518160010160006101000a81548173ffffffffffffffffffffffffffffffffffffffff021916908373ffffffffffffffffffffffffffffffffffffffff16021790555060408201518160020160006101000a81548173ffffffffffffffffffffffffffffffffffffffff021916908373ffffffffffffffffffffffffffffffffffffffff1602179055506060820151816003015560808201518160040160006101000a81548160ff0219169083151502179055509050508473ffffffffffffffffffffffffffffffffffffffff167f04fb7f0fe7df091e1ca40872289a4dd2a9da139cf34d239fe6642fe5b5460bf68786604051611ed8929190612c09565b60405180910390a2505050505050565b6001818051602081018201805184825260208301602085012081835280955050505050506000915090508060000160009054906101000a900473ffffffffffffffffffffffffffffffffffffffff16908060010160009054906101000a900473ffffffffffffffffffffffffffffffffffffffff16908060020154908060030160009054906101000a900460ff16905084565b6040518060400160405280600073ffffffffffffffffffffffffffffffffffffffff168152602001606081525090565b508054611fb790612711565b6000825580601f10611fc95750611fe8565b601f016020900490600052602060002090810190611fe79190611feb565b5b50565b5b80821115612004576000816000905550600101611fec565b5090565b6000604051905090565b600080fd5b600080fd5b600080fd5b600080fd5b6000601f19601f8301169050919050565b7f4e487b7100000000000000000000000000000000000000000000000000000000600052604160045260246000fd5b61206f82612026565b810181811067ffffffffffffffff8211171561208e5761208d612037565b5b80604052505050565b60006120a1612008565b90506120ad8282612066565b919050565b600067ffffffffffffffff8211156120cd576120cc612037565b5b6120d682612026565b9050602081019050919050565b82818337600083830152505050565b6000612105612100846120b2565b612097565b90508281526020810184848401111561212157612120612021565b5b61212c8482856120e3565b509392505050565b600082601f8301126121495761214861201c565b5b81356121598482602086016120f2565b91505092915050565b60006020828403121561217857612177612012565b5b600082013567ffffffffffffffff81111561219657612195612017565b5b6121a284828501612134565b91505092915050565b600081519050919050565b600082825260208201905092915050565b60005b838110156121e55780820151818401526020810190506121ca565b60008484015250505050565b60006121fc826121ab565b61220681856121b6565b93506122168185602086016121c7565b61221f81612026565b840191505092915050565b600073ffffffffffffffffffffffffffffffffffffffff82169050919050565b60006122558261222a565b9050919050565b6122658161224a565b82525050565b60008115159050919050565b6122808161226b565b82525050565b600060608201905081810360008301526122a081866121f1565b90506122af602083018561225c565b6122bc6040830184612277565b949350505050565b600081519050919050565b600082825260208201905092915050565b6000819050602082019050919050565b6122f98161224a565b82525050565b600082825260208201905092915050565b600061231b826121ab565b61232581856122ff565b93506123358185602086016121c7565b61233e81612026565b840191505092915050565b600060408301600083015161236160008601826122f0565b50602083015184820360208601526123798282612310565b9150508091505092915050565b60006123928383612349565b905092915050565b6000602082019050919050565b60006123b2826122c4565b6123bc81856122cf565b9350836020820285016123ce856122e0565b8060005b8581101561240a57848403895281516123eb8582612386565b94506123f68361239a565b925060208a019950506001810190506123d2565b50829750879550505050505092915050565b6000602082019050818103600083015261243681846123a7565b905092915050565b6000806040838503121561245557612454612012565b5b600083013567ffffffffffffffff81111561247357612472612017565b5b61247f85828601612134565b925050602083013567ffffffffffffffff8111156124a05761249f612017565b5b6124ac85828601612134565b9150509250929050565b6124bf8161224a565b81146124ca57600080fd5b50565b6000813590506124dc816124b6565b92915050565b6000819050919050565b6124f5816124e2565b811461250057600080fd5b50565b600081359050612512816124ec565b92915050565b60008060006060848603121561253157612530612012565b5b600084013567ffffffffffffffff81111561254f5761254e612017565b5b61255b86828701612134565b935050602061256c868287016124cd565b925050604061257d86828701612503565b9150509250925092565b612590816124e2565b82525050565b600060a08201905081810360008301526125b081886121f1565b90506125bf602083018761225c565b6125cc6040830186612277565b6125d96060830185612587565b6125e66080830184612587565b9695505050505050565b600060a082019050818103600083015261260a81886121f1565b9050612619602083018761225c565b612626604083018661225c565b6126336060830185612587565b6126406080830184612277565b9695505050505050565b600060808201905061265f600083018761225c565b61266c602083018661225c565b6126796040830185612587565b6126866060830184612277565b95945050505050565b600081905092915050565b60006126a5826121ab565b6126af818561268f565b93506126bf8185602086016121c7565b80840191505092915050565b60006126d7828461269a565b915081905092915050565b7f4e487b7100000000000000000000000000000000000000000000000000000000600052602260045260246000fd5b6000600282049050600182168061272957607f821691505b60208210810361273c5761273b6126e2565b5b50919050565b7f4e6f7420746865206f776e657200000000000000000000000000000000000000600082015250565b6000612778600d836121b6565b915061278382612742565b602082019050919050565b600060208201905081810360008301526127a78161276b565b9050919050565b7f5468652073616c65206973206e6f742061637469766500000000000000000000600082015250565b60006127e46016836121b6565b91506127ef826127ae565b602082019050919050565b60006020820190508181036000830152612813816127d7565b9050919050565b6000602082019050818103600083015261283481846121f1565b905092915050565b7f4e6f742074686520627579657200000000000000000000000000000000000000600082015250565b6000612872600d836121b6565b915061287d8261283c565b602082019050919050565b600060208201905081810360008301526128a181612865565b9050919050565b7f496e73756666696369656e742066756e64730000000000000000000000000000600082015250565b60006128de6012836121b6565b91506128e9826128a8565b602082019050919050565b6000602082019050818103600083015261290d816128d1565b9050919050565b60008190508160005260206000209050919050565b60006020601f8301049050919050565b600082821b905092915050565b6000600883026129767fffffffffffffffffffffffffffffffffffffffffffffffffffffffffffffffff82612939565b6129808683612939565b95508019841693508086168417925050509392505050565b6000819050919050565b60006129bd6129b86129b3846124e2565b612998565b6124e2565b9050919050565b6000819050919050565b6129d7836129a2565b6129eb6129e3826129c4565b848454612946565b825550505050565b600090565b612a006129f3565b612a0b8184846129ce565b505050565b5b81811015612a2f57612a246000826129f8565b600181019050612a11565b5050565b601f821115612a7457612a4581612914565b612a4e84612929565b81016020851015612a5d578190505b612a71612a6985612929565b830182612a10565b50505b505050565b600082821c905092915050565b6000612a9760001984600802612a79565b1980831691505092915050565b6000612ab08383612a86565b9150826002028217905092915050565b612ac9826121ab565b67ffffffffffffffff811115612ae257612ae1612037565b5b612aec8254612711565b612af7828285612a33565b600060209050601f831160018114612b2a5760008415612b18578287015190505b612b228582612aa4565b865550612b8a565b601f198416612b3886612914565b60005b82811015612b6057848901518255600182019150602085019450602081019050612b3b565b86831015612b7d5784890151612b79601f891682612a86565b8355505b6001600288020188555050505b505050505050565b7f4e487b7100000000000000000000000000000000000000000000000000000000600052601160045260246000fd5b6000612bcc826124e2565b91507fffffffffffffffffffffffffffffffffffffffffffffffffffffffffffffffff8203612bfe57612bfd612b92565b5b600182019050919050565b60006040820190508181036000830152612c2381856121f1565b9050612c326020830184612587565b9392505050565b7f4e487b7100000000000000000000000000000000000000000000000000000000600052603260045260246000fd5b7f546869732076656869636c652069732061726368697665642e00000000000000600082015250565b6000612c9e6019836121b6565b9150612ca982612c68565b602082019050919050565b60006020820190508181036000830152612ccd81612c91565b9050919050565b7f4e6f742074686520676172616769737400000000000000000000000000000000600082015250565b6000612d0a6010836121b6565b9150612d1582612cd4565b602082019050919050565b60006020820190508181036000830152612d3981612cfd565b9050919050565b7f4d61696e74656e616e636520697320616c726561647920636f6d706c65746564600082015250565b6000612d766020836121b6565b9150612d8182612d40565b602082019050919050565b60006020820190508181036000830152612da581612d69565b9050919050565b7f4e487b7100000000000000000000000000000000000000000000000000000000600052601260045260246000fd5b6000612de6826124e2565b9150612df1836124e2565b925082612e0157612e00612dac565b5b828204905092915050565b6000612e17826124e2565b9150612e22836124e2565b9250828203905081811115612e3a57612e39612b92565b5b92915050565b7f4d61696e74656e616e636520616c726561647920636f6d706c65746564000000600082015250565b6000612e76601d836121b6565b9150612e8182612e40565b602082019050919050565b60006020820190508181036000830152612ea581612e69565b9050919050565b7f5468652076616c7565206d7573742062652067726561746572207468616e207a60008201527f65726f2e00000000000000000000000000000000000000000000000000000000602082015250565b6000612f086024836121b6565b9150612f1382612eac565b604082019050919050565b60006020820190508181036000830152612f3781612efb565b9050919050565b7f56656869636c6520616c72656164792065786973747300000000000000000000600082015250565b6000612f746016836121b6565b9150612f7f82612f3e565b602082019050919050565b60006020820190508181036000830152612fa381612f67565b905091905056fea26469706673582212203eb11058911cfb4f2853ef66e6d69c9cad303949857dc6e7556e8d61a7b1a54864736f6c634300081c0033",
  "linkReferences": {},
  "deployedLinkReferences": {}
}